{
  "contractName": "Voting",
  "abi": [
    {
      "inputs": [],
      "stateMutability": "nonpayable",
      "type": "constructor"
    },
    {
      "anonymous": false,
      "inputs": [
        {
          "indexed": false,
          "internalType": "uint256",
          "name": "id",
          "type": "uint256"
        },
        {
          "indexed": false,
          "internalType": "string",
          "name": "name",
          "type": "string"
        },
        {
          "indexed": false,
          "internalType": "string",
          "name": "electionId",
          "type": "string"
        }
      ],
      "name": "CandidateAdded",
      "type": "event"
    },
    {
      "anonymous": false,
      "inputs": [
        {
          "indexed": true,
          "internalType": "address",
          "name": "voter",
          "type": "address"
        },
        {
          "indexed": false,
          "internalType": "uint256",
          "name": "candidateId",
          "type": "uint256"
        },
        {
          "indexed": false,
          "internalType": "string",
          "name": "electionId",
          "type": "string"
        }
      ],
      "name": "Voted",
      "type": "event"
    },
    {
      "inputs": [],
      "name": "admin",
      "outputs": [
        {
          "internalType": "address",
          "name": "",
          "type": "address"
        }
      ],
      "stateMutability": "view",
      "type": "function"
    },
    {
      "inputs": [
        {
          "internalType": "uint256",
          "name": "",
          "type": "uint256"
        }
      ],
      "name": "candidates",
      "outputs": [
        {
          "internalType": "uint256",
          "name": "id",
          "type": "uint256"
        },
        {
          "internalType": "string",
          "name": "name",
          "type": "string"
        },
        {
          "internalType": "string",
          "name": "electionId",
          "type": "string"
        },
        {
          "internalType": "uint256",
          "name": "voteCount",
          "type": "uint256"
        }
      ],
      "stateMutability": "view",
      "type": "function"
    },
    {
      "inputs": [
        {
          "internalType": "string",
          "name": "",
          "type": "string"
        },
        {
          "internalType": "uint256",
          "name": "",
          "type": "uint256"
        }
      ],
      "name": "electionToCandidateIds",
      "outputs": [
        {
          "internalType": "uint256",
          "name": "",
          "type": "uint256"
        }
      ],
      "stateMutability": "view",
      "type": "function"
    },
    {
      "inputs": [
        {
          "internalType": "string",
          "name": "",
          "type": "string"
        },
        {
          "internalType": "address",
          "name": "",
          "type": "address"
        }
      ],
      "name": "hasVoted",
      "outputs": [
        {
          "internalType": "bool",
          "name": "",
          "type": "bool"
        }
      ],
      "stateMutability": "view",
      "type": "function"
    },
    {
      "inputs": [],
      "name": "nextId",
      "outputs": [
        {
          "internalType": "uint256",
          "name": "",
          "type": "uint256"
        }
      ],
      "stateMutability": "view",
      "type": "function"
    },
    {
      "inputs": [
        {
          "internalType": "string",
          "name": "_name",
          "type": "string"
        },
        {
          "internalType": "string",
          "name": "_electionId",
          "type": "string"
        }
      ],
      "name": "addCandidate",
      "outputs": [],
      "stateMutability": "nonpayable",
      "type": "function"
    },
    {
      "inputs": [
        {
          "internalType": "uint256",
          "name": "_candidateId",
          "type": "uint256"
        },
        {
          "internalType": "string",
          "name": "_electionId",
          "type": "string"
        }
      ],
      "name": "vote",
      "outputs": [],
      "stateMutability": "nonpayable",
      "type": "function"
    },
    {
      "inputs": [
        {
          "internalType": "string",
          "name": "_electionId",
          "type": "string"
        }
      ],
      "name": "getCandidatesCount",
      "outputs": [
        {
          "internalType": "uint256",
          "name": "",
          "type": "uint256"
        }
      ],
      "stateMutability": "view",
      "type": "function"
    },
    {
      "inputs": [
        {
          "internalType": "uint256",
          "name": "_id",
          "type": "uint256"
        }
      ],
      "name": "getCandidate",
      "outputs": [
        {
          "internalType": "uint256",
          "name": "id",
          "type": "uint256"
        },
        {
          "internalType": "string",
          "name": "name",
          "type": "string"
        },
        {
          "internalType": "string",
          "name": "electionId",
          "type": "string"
        },
        {
          "internalType": "uint256",
          "name": "voteCount",
          "type": "uint256"
        }
      ],
      "stateMutability": "view",
      "type": "function"
    },
    {
      "inputs": [
        {
          "internalType": "string",
          "name": "_electionId",
          "type": "string"
        }
      ],
      "name": "getCandidatesByElection",
      "outputs": [
        {
          "components": [
            {
              "internalType": "uint256",
              "name": "id",
              "type": "uint256"
            },
            {
              "internalType": "string",
              "name": "name",
              "type": "string"
            },
            {
              "internalType": "string",
              "name": "electionId",
              "type": "string"
            },
            {
              "internalType": "uint256",
              "name": "voteCount",
              "type": "uint256"
            }
          ],
          "internalType": "struct Voting.Candidate[]",
          "name": "",
          "type": "tuple[]"
        }
      ],
      "stateMutability": "view",
      "type": "function"
    }
  ],
  "bytecode": "0x60806040526001805534801561001457600080fd5b50336000806101000a81548173ffffffffffffffffffffffffffffffffffffffff021916908373ffffffffffffffffffffffffffffffffffffffff1602179055506119d5806100646000396000f3fe608060405234801561001057600080fd5b506004361061009e5760003560e01c806361b8ce8c1161006657806361b8ce8c1461017157806390cfac141461018f578063926e5c45146101bf5780639af06cd9146101ef578063f851a4401461021f5761009e565b806305af10d3146100a357806324108475146100d357806326541b56146100ef5780633477ee2e1461010b57806335b8e8201461013e575b600080fd5b6100bd60048036038101906100b89190610dcc565b61023d565b6040516100ca9190610e37565b60405180910390f35b6100ed60048036038101906100e89190610e52565b610284565b005b61010960048036038101906101049190610eae565b610488565b005b61012560048036038101906101209190610f26565b610632565b6040516101359493929190610fd2565b60405180910390f35b61015860048036038101906101539190610f26565b610772565b6040516101689493929190610fd2565b60405180910390f35b6101796108f6565b6040516101869190610e37565b60405180910390f35b6101a960048036038101906101a49190611025565b6108fc565b6040516101b691906111f3565b60405180910390f35b6101d960048036038101906101d49190611025565b610b80565b6040516101e69190610e37565b60405180910390f35b61020960048036038101906102049190611273565b610bab565b60405161021691906112ea565b60405180910390f35b610227610bf0565b6040516102349190611314565b60405180910390f35b600382805160208101820180518482526020830160208501208183528095505050505050818154811061026f57600080fd5b90600052602060002001600091509150505481565b600481604051610294919061136b565b908152602001604051809103902060003373ffffffffffffffffffffffffffffffffffffffff1673ffffffffffffffffffffffffffffffffffffffff16815260200190815260200160002060009054906101000a900460ff161561032d576040517f08c379a0000000000000000000000000000000000000000000000000000000008152600401610324906113ce565b60405180910390fd5b600060026000848152602001908152602001600020905081805190602001208160020160405161035d91906114f1565b6040518091039020146103a5576040517f08c379a000000000000000000000000000000000000000000000000000000000815260040161039c90611554565b60405180910390fd5b8060030160008154809291906103ba906115a3565b919050555060016004836040516103d1919061136b565b908152602001604051809103902060003373ffffffffffffffffffffffffffffffffffffffff1673ffffffffffffffffffffffffffffffffffffffff16815260200190815260200160002060006101000a81548160ff0219169083151502179055503373ffffffffffffffffffffffffffffffffffffffff167f497ac9c2d8b6e7ea7204365157d9642f36d2b6125352bfa6d0a73328142d0bd9848460405161047b9291906115eb565b60405180910390a2505050565b60008054906101000a900473ffffffffffffffffffffffffffffffffffffffff1673ffffffffffffffffffffffffffffffffffffffff163373ffffffffffffffffffffffffffffffffffffffff1614610516576040517f08c379a000000000000000000000000000000000000000000000000000000000815260040161050d9061168d565b60405180910390fd5b60405180608001604052806001548152602001838152602001828152602001600081525060026000600154815260200190815260200160002060008201518160000155602082015181600101908161056e9190611859565b5060408201518160020190816105849190611859565b50606082015181600301559050506003816040516105a2919061136b565b908152602001604051809103902060015490806001815401808255809150506001900390600052602060002001600090919091909150557fe64f834082661dd9ed89427b87edb6270fd6dad17198b0938f0edd058914c87f600154838360405161060e9392919061192b565b60405180910390a160016000815480929190610629906115a3565b91905055505050565b600260205280600052604060002060009150905080600001549080600101805461065b9061141d565b80601f01602080910402602001604051908101604052809291908181526020018280546106879061141d565b80156106d45780601f106106a9576101008083540402835291602001916106d4565b820191906000526020600020905b8154815290600101906020018083116106b757829003601f168201915b5050505050908060020180546106e99061141d565b80601f01602080910402602001604051908101604052809291908181526020018280546107159061141d565b80156107625780601f1061073757610100808354040283529160200191610762565b820191906000526020600020905b81548152906001019060200180831161074557829003601f168201915b5050505050908060030154905084565b600060608060008060026000878152602001908152602001600020604051806080016040529081600082015481526020016001820180546107b29061141d565b80601f01602080910402602001604051908101604052809291908181526020018280546107de9061141d565b801561082b5780601f106108005761010080835404028352916020019161082b565b820191906000526020600020905b81548152906001019060200180831161080e57829003601f168201915b505050505081526020016002820180546108449061141d565b80601f01602080910402602001604051908101604052809291908181526020018280546108709061141d565b80156108bd5780601f10610892576101008083540402835291602001916108bd565b820191906000526020600020905b8154815290600101906020018083116108a057829003601f168201915b50505050508152602001600382015481525050905080600001518160200151826040015183606001519450945094509450509193509193565b60015481565b60606000600383604051610910919061136b565b908152602001604051809103902080548060200260200160405190810160405280929190818152602001828054801561096857602002820191906000526020600020905b815481526020019060010190808311610954575b505050505090506000815167ffffffffffffffff81111561098c5761098b610c6b565b5b6040519080825280602002602001820160405280156109c557816020015b6109b2610c14565b8152602001906001900390816109aa5790505b50905060005b8251811015610b7557600260008483815181106109eb576109ea611970565b5b6020026020010151815260200190815260200160002060405180608001604052908160008201548152602001600182018054610a269061141d565b80601f0160208091040260200160405190810160405280929190818152602001828054610a529061141d565b8015610a9f5780601f10610a7457610100808354040283529160200191610a9f565b820191906000526020600020905b815481529060010190602001808311610a8257829003601f168201915b50505050508152602001600282018054610ab89061141d565b80601f0160208091040260200160405190810160405280929190818152602001828054610ae49061141d565b8015610b315780601f10610b0657610100808354040283529160200191610b31565b820191906000526020600020905b815481529060010190602001808311610b1457829003601f168201915b50505050508152602001600382015481525050828281518110610b5757610b56611970565b5b60200260200101819052508080610b6d906115a3565b9150506109cb565b508092505050919050565b6000600382604051610b92919061136b565b9081526020016040518091039020805490509050919050565b6004828051602081018201805184825260208301602085012081835280955050505050506020528060005260406000206000915091509054906101000a900460ff1681565b60008054906101000a900473ffffffffffffffffffffffffffffffffffffffff1681565b6040518060800160405280600081526020016060815260200160608152602001600081525090565b6000604051905090565b600080fd5b600080fd5b600080fd5b600080fd5b6000601f19601f8301169050919050565b7f4e487b7100000000000000000000000000000000000000000000000000000000600052604160045260246000fd5b610ca382610c5a565b810181811067ffffffffffffffff82111715610cc257610cc1610c6b565b5b80604052505050565b6000610cd5610c3c565b9050610ce18282610c9a565b919050565b600067ffffffffffffffff821115610d0157610d00610c6b565b5b610d0a82610c5a565b9050602081019050919050565b82818337600083830152505050565b6000610d39610d3484610ce6565b610ccb565b905082815260208101848484011115610d5557610d54610c55565b5b610d60848285610d17565b509392505050565b600082601f830112610d7d57610d7c610c50565b5b8135610d8d848260208601610d26565b91505092915050565b6000819050919050565b610da981610d96565b8114610db457600080fd5b50565b600081359050610dc681610da0565b92915050565b60008060408385031215610de357610de2610c46565b5b600083013567ffffffffffffffff811115610e0157610e00610c4b565b5b610e0d85828601610d68565b9250506020610e1e85828601610db7565b9150509250929050565b610e3181610d96565b82525050565b6000602082019050610e4c6000830184610e28565b92915050565b60008060408385031215610e6957610e68610c46565b5b6000610e7785828601610db7565b925050602083013567ffffffffffffffff811115610e9857610e97610c4b565b5b610ea485828601610d68565b9150509250929050565b60008060408385031215610ec557610ec4610c46565b5b600083013567ffffffffffffffff811115610ee357610ee2610c4b565b5b610eef85828601610d68565b925050602083013567ffffffffffffffff811115610f1057610f0f610c4b565b5b610f1c85828601610d68565b9150509250929050565b600060208284031215610f3c57610f3b610c46565b5b6000610f4a84828501610db7565b91505092915050565b600081519050919050565b600082825260208201905092915050565b60005b83811015610f8d578082015181840152602081019050610f72565b60008484015250505050565b6000610fa482610f53565b610fae8185610f5e565b9350610fbe818560208601610f6f565b610fc781610c5a565b840191505092915050565b6000608082019050610fe76000830187610e28565b8181036020830152610ff98186610f99565b9050818103604083015261100d8185610f99565b905061101c6060830184610e28565b95945050505050565b60006020828403121561103b5761103a610c46565b5b600082013567ffffffffffffffff81111561105957611058610c4b565b5b61106584828501610d68565b91505092915050565b600081519050919050565b600082825260208201905092915050565b6000819050602082019050919050565b6110a381610d96565b82525050565b600082825260208201905092915050565b60006110c582610f53565b6110cf81856110a9565b93506110df818560208601610f6f565b6110e881610c5a565b840191505092915050565b600060808301600083015161110b600086018261109a565b506020830151848203602086015261112382826110ba565b9150506040830151848203604086015261113d82826110ba565b9150506060830151611152606086018261109a565b508091505092915050565b600061116983836110f3565b905092915050565b6000602082019050919050565b60006111898261106e565b6111938185611079565b9350836020820285016111a58561108a565b8060005b858110156111e157848403895281516111c2858261115d565b94506111cd83611171565b925060208a019950506001810190506111a9565b50829750879550505050505092915050565b6000602082019050818103600083015261120d818461117e565b905092915050565b600073ffffffffffffffffffffffffffffffffffffffff82169050919050565b600061124082611215565b9050919050565b61125081611235565b811461125b57600080fd5b50565b60008135905061126d81611247565b92915050565b6000806040838503121561128a57611289610c46565b5b600083013567ffffffffffffffff8111156112a8576112a7610c4b565b5b6112b485828601610d68565b92505060206112c58582860161125e565b9150509250929050565b60008115159050919050565b6112e4816112cf565b82525050565b60006020820190506112ff60008301846112db565b92915050565b61130e81611235565b82525050565b60006020820190506113296000830184611305565b92915050565b600081905092915050565b600061134582610f53565b61134f818561132f565b935061135f818560208601610f6f565b80840191505092915050565b6000611377828461133a565b915081905092915050565b7f596f7520616c726561647920766f746564000000000000000000000000000000600082015250565b60006113b8601183610f5e565b91506113c382611382565b602082019050919050565b600060208201905081810360008301526113e7816113ab565b9050919050565b7f4e487b7100000000000000000000000000000000000000000000000000000000600052602260045260246000fd5b6000600282049050600182168061143557607f821691505b602082108103611448576114476113ee565b5b50919050565b600081905092915050565b60008190508160005260206000209050919050565b6000815461147b8161141d565b611485818661144e565b945060018216600081146114a057600181146114b5576114e8565b60ff19831686528115158202860193506114e8565b6114be85611459565b60005b838110156114e0578154818901526001820191506020810190506114c1565b838801955050505b50505092915050565b60006114fd828461146e565b915081905092915050565b7f496e76616c69642063616e646964617465000000000000000000000000000000600082015250565b600061153e601183610f5e565b915061154982611508565b602082019050919050565b6000602082019050818103600083015261156d81611531565b9050919050565b7f4e487b7100000000000000000000000000000000000000000000000000000000600052601160045260246000fd5b60006115ae82610d96565b91507fffffffffffffffffffffffffffffffffffffffffffffffffffffffffffffffff82036115e0576115df611574565b5b600182019050919050565b60006040820190506116006000830185610e28565b81810360208301526116128184610f99565b90509392505050565b7f4f6e6c792061646d696e2063616e20706572666f726d2074686973206163746960008201527f6f6e000000000000000000000000000000000000000000000000000000000000602082015250565b6000611677602283610f5e565b91506116828261161b565b604082019050919050565b600060208201905081810360008301526116a68161166a565b9050919050565b60008190508160005260206000209050919050565b60006020601f8301049050919050565b600082821b905092915050565b60006008830261170f7fffffffffffffffffffffffffffffffffffffffffffffffffffffffffffffffff826116d2565b61171986836116d2565b95508019841693508086168417925050509392505050565b6000819050919050565b600061175661175161174c84610d96565b611731565b610d96565b9050919050565b6000819050919050565b6117708361173b565b61178461177c8261175d565b8484546116df565b825550505050565b600090565b61179961178c565b6117a4818484611767565b505050565b5b818110156117c8576117bd600082611791565b6001810190506117aa565b5050565b601f82111561180d576117de816116ad565b6117e7846116c2565b810160208510156117f6578190505b61180a611802856116c2565b8301826117a9565b50505b505050565b600082821c905092915050565b600061183060001984600802611812565b1980831691505092915050565b6000611849838361181f565b9150826002028217905092915050565b61186282610f53565b67ffffffffffffffff81111561187b5761187a610c6b565b5b611885825461141d565b6118908282856117cc565b600060209050601f8311600181146118c357600084156118b1578287015190505b6118bb858261183d565b865550611923565b601f1984166118d1866116ad565b60005b828110156118f9578489015182556001820191506020850194506020810190506118d4565b868310156119165784890151611912601f89168261181f565b8355505b6001600288020188555050505b505050505050565b60006060820190506119406000830186610e28565b81810360208301526119528185610f99565b905081810360408301526119668184610f99565b9050949350505050565b7f4e487b7100000000000000000000000000000000000000000000000000000000600052603260045260246000fdfea26469706673582212209e36f0095521a21203339522ff2453884e7e9aada73f35e3d0070a66a428896a64736f6c63430008120033",
  "immutableReferences": {},
  "source": "// SPDX-License-Identifier: MIT\r\npragma solidity ^0.8.0;\r\n\r\ncontract Voting {\r\n    struct Candidate {\r\n        uint id;\r\n        string name;\r\n        string electionId;\r\n        uint voteCount;\r\n    }\r\n\r\n    address public admin;\r\n    uint public nextId = 1;\r\n\r\n    mapping(uint => Candidate) public candidates;\r\n    mapping(string => uint[]) public electionToCandidateIds;\r\n    mapping(string => mapping(address => bool)) public hasVoted;\r\n\r\n    event CandidateAdded(uint id, string name, string electionId);\r\n    event Voted(address indexed voter, uint candidateId, string electionId);\r\n\r\n    modifier onlyAdmin() {\r\n        require(msg.sender == admin, \"Only admin can perform this action\");\r\n        _;\r\n    }\r\n\r\n    constructor() {\r\n        admin = msg.sender;\r\n    }\r\n\r\n    function addCandidate(string memory _name, string memory _electionId) public onlyAdmin {\r\n        candidates[nextId] = Candidate(nextId, _name, _electionId, 0);\r\n        electionToCandidateIds[_electionId].push(nextId);\r\n        emit CandidateAdded(nextId, _name, _electionId);\r\n        nextId++;\r\n    }\r\n\r\n    function vote(uint _candidateId, string memory _electionId) public {\r\n        require(!hasVoted[_electionId][msg.sender], \"You already voted\");\r\n        Candidate storage candidate = candidates[_candidateId];\r\n        require(keccak256(bytes(candidate.electionId)) == keccak256(bytes(_electionId)), \"Invalid candidate\");\r\n\r\n        candidate.voteCount++;\r\n        hasVoted[_electionId][msg.sender] = true;\r\n        emit Voted(msg.sender, _candidateId, _electionId);\r\n    }\r\n\r\n    function getCandidatesCount(string memory _electionId) public view returns (uint) {\r\n        return electionToCandidateIds[_electionId].length;\r\n    }\r\n\r\n    function getCandidate(uint _id) public view returns (\r\n        uint id,\r\n        string memory name,\r\n        string memory electionId,\r\n        uint voteCount\r\n    ) {\r\n        Candidate memory c = candidates[_id];\r\n        return (c.id, c.name, c.electionId, c.voteCount);\r\n    }\r\n\r\n    function getCandidatesByElection(string memory _electionId) public view returns (Candidate[] memory) {\r\n        uint[] memory ids = electionToCandidateIds[_electionId];\r\n        Candidate[] memory result = new Candidate[](ids.length);\r\n        for (uint i = 0; i < ids.length; i++) {\r\n            result[i] = candidates[ids[i]];\r\n        }\r\n        return result;\r\n    }\r\n}\r\n",
  "sourcePath": "C:\\Users\\Admin\\OneDrive\\Desktop\\voting-system\\blockchain\\contracts\\Voting.sol",
  "compiler": {
    "name": "solc",
    "version": "0.8.18+commit.87f61d96.Emscripten.clang"
  },
  "schemaVersion": "3.4.16",
  "updatedAt": "2025-06-27T08:16:19.754Z",
  "devdoc": {
    "kind": "dev",
    "methods": {},
    "version": 1
  },
  "userdoc": {
    "kind": "user",
    "methods": {},
    "version": 1
  }
}